:100000000C9463000C948B000C948B000C948B006C
:100010000C948B000C948B000C948B000C941D039F
:100020000C948B000C948B000C948B000C948B0024
:100030000C948B000C948B000C948B000C948B0014
:100040000C94D1030C948B000C949F030C947903B3
:100050000C948B000C948B000C948B000C948B00F4
:100060000C948B000C948B000000000024002700EF
:100070002A000000000023002600290000000008DC
:10008000000201000003040700000000000000005F
:10009000010204081020408001020408102001021F
:1000A0000408102000000000250028002B00040494
:1000B0000404040404040202020202020303030310
:1000C000030302001B0411241FBECFEFD8E0DEBFE4
:1000D000CDBF11E0A0E0B1E0E0EAF0E102C00590A0
:1000E0000D92A03FB107D9F722E0A0EFB1E001C027
:1000F0001D92AD3AB207E1F710E0C3E6D0E004C0CC
:100100002197FE010E943908C236D107C9F70E9423
:1001100051040C944E080C940000AF92BF92CF9201
:10012000DF92EF92FF920F931F93CF93DF936C01B7
:100130007B018B01040F151FEB015E01AE18BF0898
:10014000C017D10759F06991D601ED91FC9101904A
:10015000F081E02DC6010995892B79F7C501DF9162
:10016000CF911F910F91FF90EF90DF90CF90BF90B4
:10017000AF900895FC01538D448D252F30E0842FDE
:1001800090E0821B930B541710F0CF9608950197BF
:100190000895FC01918D828D981761F0A28DAE0FAC
:1001A000BF2FB11D5D968C91928D9F5F9F73928F33
:1001B00090E008958FEF9FEF0895FC01918D828D5F
:1001C000981731F0828DE80FF11D858D90E008952C
:1001D0008FEF9FEF0895FC01918D228D892F90E084
:1001E000805C9F4F821B91098F73992708958EE041
:1001F00092E00E94EB0021E0892B09F420E0822F9D
:10020000089580E090E0892B29F00E94F700811189
:100210000C9400000895FC01A48DA80FB92FB11D06
:10022000A35ABF4F2C91848D90E001968F7399272C
:10023000848FA689B7892C93A089B1898C9183700A
:1002400080648C93938D848D981306C00288F38903
:10025000E02D80818F7D80830895EF92FF920F9330
:100260001F93CF93DF93EC0181E0888F9B8D8C8D62
:1002700098131AC0E889F989808185FF15C09FB756
:10028000F894EE89FF896083E889F9898081837019
:10029000806480839FBF81E090E0DF91CF911F91C8
:1002A0000F91FF90EF900895F62E0B8D10E00F5FE9
:1002B0001F4F0F731127E02E8C8D8E110CC00FB6BF
:1002C00007FCFACFE889F989808185FFF5CFCE0157
:1002D0000E940B01F1CFEB8DEC0FFD2FF11DE35AC6
:1002E000FF4FF0829FB7F8940B8FEA89FB898081DA
:1002F0008062CFCFCF93DF93EC01888D8823B9F054
:10030000AA89BB89E889F9898C9185FD03C0808120
:1003100086FD0DC00FB607FCF7CF8C9185FFF2CF9D
:10032000808185FFEDCFCE010E940B01E9CFDF91E7
:10033000CF910895833081F028F4813099F0823094
:10034000A9F008958730A9F08830C9F08430B1F45D
:10035000809180008F7D03C0809180008F77809393
:100360008000089584B58F7784BD089584B58F7D0E
:10037000FBCF8091B0008F778093B000089580917B
:10038000B0008F7DF9CFCF93DF93282F30E0F901B4
:10039000E458FF4F8491F901E057FF4FD491F901E0
:1003A000E255FF4FC491CC23A1F081110E949A0124
:1003B000EC2FF0E0EE0FFF1FEE58FF4FA591B49128
:1003C000EC91ED2381E090E009F480E0DF91CF91A2
:1003D000089580E090E0FACF1F93CF93DF93282F0A
:1003E00030E0F901E458FF4F8491F901E057FF4FE5
:1003F000D491F901E255FF4FC491CC23A9F0162FF7
:1004000081110E949A01EC2FF0E0EE0FFF1FEC55D6
:10041000FF4FA591B4918FB7F894EC91111108C0DA
:10042000D095DE23DC938FBFDF91CF911F9108958C
:10043000DE2BF8CF9091000189130BC0E2ECF0E0C5
:10044000E4919FEF90930001E13049F028F0E23011
:1004500061F060E00C94EC0110926E00FACF909184
:100460006F009D7F90936F00F4CF909170009D7FFF
:100470009093700091E09093B0009091B100987FBC
:1004800094609093B1001092B300E3CFCF93DF93C9
:1004900090E0FC01E057FF4F249182559F4FFC01F3
:1004A00084918823D1F090E0880F991FFC01E859CE
:1004B000FF4FA591B491FC01EC55FF4FC591D4912C
:1004C00061110EC09FB7F8948C91E22FE0958E23B6
:1004D0008C932881E223E8839FBFDF91CF91089519
:1004E0008FB7F894EC91E22BEC938FBFF6CF3FB728
:1004F000F8948091F5019091F601A091F701B091E7
:10050000F80126B5A89B05C02F3F19F00196A11D43
:10051000B11D3FBFBA2FA92F982F8827BC01CD014D
:10052000620F711D811D911D42E0660F771F881FAC
:10053000991F4A95D1F708958F929F92AF92BF92DB
:10054000CF92DF92EF92FF926B017C010E947702C3
:100550004B015C01C114D104E104F104B9F00E9423
:100560007702681979098A099B09683E73408105F9
:10057000910580F321E0C21AD108E108F10888EE64
:10058000880E83E0981EA11CB11CE4CFFF90EF9071
:10059000DF90CF90BF90AF909F908F9008958F92F3
:1005A0009F92AF92BF920F931F93CF93DF93CDB7DC
:1005B000DEB7A1970FB6F894DEBF0FBECDBF19A26C
:1005C000423008F44AE08E010F5D1F4F842E912CBB
:1005D000B12CA12CA50194010E94DD07E62FB901E1
:1005E000CA01EA3044F5E05DD801EE938D01232B7A
:1005F000242B252B79F790E080E0109769F0FD011E
:1006000001900020E9F73197AF014A1B5B0BBD0158
:100610008EE092E00E948D00A1960FB6F894DEBFA6
:100620000FBECDBFDF91CF911F910F91BF90AF90C3
:100630009F908F900895E95CD7CF1F920F920FB6CD
:100640000F9211242F933F934F935F936F937F9358
:100650008F939F93AF93BF93EF93FF938091FE018E
:100660009091FF01A0910002B0910102892B8A2B89
:100670008B2BD1F19091F901E091FA01F091FB01FE
:100680008081892780838091FE019091FF01A09154
:100690000002B0910102181619061A061B069CF4F6
:1006A0008091FE019091FF01A0910002B0910102A2
:1006B0000197A109B1098093FE019093FF01A093D6
:1006C0000002B0930102FF91EF91BF91AF919F9112
:1006D0008F917F916F915F914F913F912F910F90EB
:1006E0000FBE0F901F901895809100010E941A0272
:1006F000EACF1F920F920FB60F9211242F933F93C0
:100700004F935F936F937F938F939F93AF93BF9319
:10071000EF93FF938EE092E00E940B01FF91EF9127
:10072000BF91AF919F918F917F916F915F914F9109
:100730003F912F910F900FBE0F901F9018951F9211
:100740000F920FB60F9211242F938F939F93EF93D5
:10075000FF93E0911E02F0911F028081E09124023C
:10076000F091250282FD1BC09081809127028F5F4E
:100770008F7320912802821741F0E0912702F0E068
:10078000E25FFD4F958F80932702FF91EF919F913C
:100790008F912F910F900FBE0F901F901895808111
:1007A000F4CF1F920F920FB60F9211242F933F9305
:1007B0008F939F93AF93BF938091F1019091F2013A
:1007C000A091F301B091F4013091F00123E0230FE7
:1007D0002D3758F50196A11DB11D2093F00180938E
:1007E000F1019093F201A093F301B093F401809191
:1007F000F5019091F601A091F701B091F8010196F1
:10080000A11DB11D8093F5019093F601A093F7010E
:10081000B093F801BF91AF919F918F913F912F912C
:100820000F900FBE0F901F90189526E8230F029689
:10083000A11DB11DD2CFEEE0F2E01382128288EE4C
:1008400093E0A0E0B0E084839583A683B7838FED27
:1008500091E09183808385EC90E09587848784EC98
:1008600090E09787868780EC90E0918B808B81EC7D
:1008700090E0938B828B82EC90E0958B848B86EC5E
:1008800090E0978B868B118E128E138E148E809132
:10089000010190910201C2969093AC028093AB0249
:1008A0000895CF93DF93CDB7DEB72D970FB6F894A9
:1008B000DEBF0FBECDBF789484B5826084BD84B5A1
:1008C000816084BD85B5826085BD85B5816085BD4B
:1008D00080916E00816080936E0010928100809103
:1008E000810082608093810080918100816080938B
:1008F0008100809180008160809380008091B100B0
:1009000084608093B1008091B00081608093B000DA
:1009100080917A00846080937A0080917A0082606E
:1009200080937A0080917A00816080937A00809130
:100930007A00806880937A001092C10061E08DE0B7
:100940000E94460261E089E00E94460261E087E081
:100950000E94460260E088E00E944602E0911E028A
:10096000F0911F0282E08083E0911A02F0911B0255
:100970001082E0911C02F0911D028FEC8083109296
:100980002602E0912202F091230286E08083E0912A
:100990002002F0912102808180618083E091200219
:1009A000F0912102808188608083E0912002F091A3
:1009B0002102808180688083E0912002F0912102F1
:1009C00080818F7D808364E670E080E090E00E940B
:1009D0009C02E8E44E2EE8EE5E2E66246394712CB1
:1009E00088E00E94C301892B09F0C0C261E08DE05C
:1009F0000E94EC0161E089E00E94EC0185E090E05A
:100A000090930D0280930C028CEB92E09093020184
:100A10008093010123E031E03A8329838FE691E05E
:100A20009C878B87AFE6B1E0E981FA81AE17BF07FB
:100A300009F488C2AB85BC852D913D91BC87AB87FD
:100A400080910C0290910D020196829F6001839F1C
:100A5000D00C929FD00C1124D0920B02C0920A02AB
:100A60000D2C000CEE08FF084AE0C701B601F7FEA6
:100A70000DC06DE28EE092E00E942D01662777277F
:100A8000CB016C197D098E099F094AE00E94CF02B3
:100A900042E050E06DEE71E08EE092E00E948D0049
:100AA000E981FA8161917191FA83E9838091010171
:100AB000909102010E94C9078B017093AC02609370
:100AC000AB02CB01770FAA0BBB0B8F839887A9874B
:100AD000BA8720900A0230900B0280910001873083
:100AE00009F0BFC0E2ECF0E0F491FD87F7FDA5C18D
:100AF00061E087E00E944602FD85FF2321F02D85FD
:100B0000223009F0B4C14101B12CA12C60E072E1A6
:100B10008AE790E0A50191010E94FF072B833C83A7
:100B20004D835E8369017A0131E0C31AD108E1087F
:100B3000F1088FEFC816D104E104F10409F00CF4B8
:100B400051C160E472E48FE090E0A50191010E9440
:100B5000FF0769017A0191E0C91AD108E108F1089B
:100B6000AD85A23009F0F4C082E0BFEFCB16D1040E
:100B7000E104F10409F00CF46DC060E970ED83E06C
:100B800090E0A50191010E94FF0769017A01E1E06F
:100B9000CE1AD108E108F10883E0FFEFCF16D104A7
:100BA000E104F10409F00CF455C0C301B201A50140
:100BB00091010E94FF0769017A01F1E0CF1AD10883
:100BC000E108F10884E02FEFC216D104E104F1043A
:100BD00009F00CF43FC064E274EF80E090E0A501FE
:100BE00094010E94FF0769017A01A1E0CA1AD108A5
:100BF000E108F10885E0AFEFCA16D104E104F10481
:100C000049F140F162E17AE780E090E0A5019401CA
:100C10000E94FF0769017A0181E0C81AD108E10842
:100C2000F10886E09FEFC916D104E104F10491F0C8
:100C300088F0CB80DC80ED80FE809AE0F594E7942C
:100C4000D794C7949A95D1F7B1E0CB1AD108E108AF
:100C5000F10887E09091B100987F892B8093B100D3
:100C6000C9C08F3F09F0E9C087E080930001E2EC42
:100C7000F0E0F491FD87FF3F09F4DFC0F13031F17E
:100C800058F0F23009F441C0AD85A7FDD6C061E04F
:100C900087E00E94460233CF14BC15BC84B5826045
:100CA00084BD85B5816085BDE5EBF0E08491E82FDA
:100CB000F0E0EE0FFF1FEC55FF4F85919491E7E9AF
:100CC000F0E084918093FD011D8612CF1092800088
:100CD00010928100809181008860809381008091D2
:100CE0008100816080938100E5EBF0E08491E82F42
:100CF000F0E0EE0FFF1FEC55FF4F85919491E7E96F
:100D0000F0E084918093FC01F3CE1092B000109239
:100D1000B1008091B00082608093B0008091B100FA
:100D200081608093B100E5EBF0E08491E82FF0E082
:100D3000EE0FFF1FEC55FF4F859194919093FB01AF
:100D40008093FA01E7E9F0E084918093F901D0CE35
:100D50002FEFC216D104E104F10409F00CF485C0B0
:100D6000C301B201A50191010E94FF0769017A0147
:100D700081E0C81AD108E108F1089D8584E091114D
:100D80003ACF83E03FEFC316D104E104F10471F1DF
:100D90006CF162E17AE780E090E0A50194010E94A5
:100DA000FF0769017A01B1E0CB1AD108E108F10827
:100DB00084E0EFEFCE16D104E104F104B9F0B0F015
:100DC000CB80DC80ED80FE808AE0F594E794D794B8
:100DD000C7948A95D1F7E1E0CE1AD108E108F1086D
:100DE00085E004C081E0FD85F11134CF95B5987F91
:100DF000892B85BD8F819885A985BA852FEF3FEF17
:100E0000A901892B8A2B8B2B09F05EC09D8591301F
:100E100009F476C0923009F485C091110EC0C7BCA8
:100E20002093060230930702409308025093090270
:100E300080916E00826080936E006091AB02709131
:100E4000AC02072E000C880B990B0E949C0287E0D5
:100E50000E941A028DE00E94C30161E0892B09F013
:100E600060E08DE00E94EC01DDCD82E0BCCFB12CD2
:100E7000A12C60E072E18AE790E0A50191010E9457
:100E8000FF0769017A0181E0C81AD108E108F10879
:100E9000C114D10491E0E906F1041CF591E0BD858F
:100EA000B13009F0A7CF80918100887F892B809392
:100EB00081008F819885A985BA852FEF3FEFA90121
:100EC000892B8A2B8B2BE1F09101220F331FD80144
:100ED0000E941E0828EE33E040E050E00E94DD074B
:100EE00095CFC301B201A50191010E94FF076901DD
:100EF0007A01A1E0CA1AD108E108F10893E0CFCF46
:100F0000D0928900C092880020930202309303029D
:100F1000409304025093050280916F008260809399
:100F20006F008BCFC092B3002093FE013093FF017E
:100F30004093000250930102809170008260809380
:100F400070007BCF60E089E00E94EC0160E08DE002
:100F50000E94EC016091AB027091AC02660F771FAA
:100F6000072E000C880B990B0E949C0264EF71E025
:100F700080E090E00E949C0280E090E0892B09F4E0
:100F80002FCD0E94F700882309F423CD0E94000092
:100F900020CD97FB072E16F4009407D077FD09D0DB
:100FA0000E94250807FC05D03EF4909581959F4F3F
:100FB0000895709561957F4F0895A1E21A2EAA1B9E
:100FC000BB1BFD010DC0AA1FBB1FEE1FFF1FA217F9
:100FD000B307E407F50720F0A21BB30BE40BF50BF6
:100FE000661F771F881F991F1A9469F7609570957F
:100FF000809590959B01AC01BD01CF010895052E10
:1010000097FB1EF400940E94160857FD07D00E941B
:10101000DD0707FC03D04EF40C941608509540955C
:10102000309521953F4F4F4F5F4F08959095809594
:10103000709561957F4F8F4F9F4F08950E943F0895
:10104000B7FF0895821B930B0895AA1BBB1B51E1A8
:1010500007C0AA1FBB1FA617B70710F0A61BB70B28
:10106000881F991F5A95A9F780959095BC01CD01CD
:101070000895EE0FFF1F0590F491E02D0994A29FB3
:10108000B001B39FC001A39F700D811D1124911D5C
:10109000B29F700D811D1124911D0895F894FFCF0A
:1010A000FFF401020002000300030003000300023A
:1010B000000200020002000300030003000300021C
:1010C000000200020002000300030003000300020C
:1010D00000020003000300020002000200010002FF
:1010E00000020002000200010002000200020002F1
:1010F00000010002000200030003000300030002DD
:1011000000020003000300020002000200010006CA
:10111000015D015D0188015D014A0126012601266C
:101120000188018801B80188015D014A01060106B4
:1011300001B801B801D201B80188015D012601069C
:10114000010601260188014A015D0106015D015D7C
:10115000015D014A014A015D014A0126010601883B
:1011600001B801880188015D015D010B02060106DD
:10117000010601260188014A015D01000000002DE1
:10118000018D00BA007A01EB00C900DD000D0A00F4
:107E0000112484B714BE81FFF0D085E080938100F7
:107E100082E08093C00088E18093C10086E0809377
:107E2000C20080E18093C4008EE0C9D0259A86E02C
:107E300020E33CEF91E0309385002093840096BBD3
:107E4000B09BFECF1D9AA8958150A9F7CC24DD24C4
:107E500088248394B5E0AB2EA1E19A2EF3E0BF2EE7
:107E6000A2D0813461F49FD0082FAFD0023811F036
:107E7000013811F484E001C083E08DD089C08234E0
:107E800011F484E103C0853419F485E0A6D080C0E4
:107E9000853579F488D0E82EFF2485D0082F10E0AE
:107EA000102F00270E291F29000F111F8ED06801E7
:107EB0006FC0863521F484E090D080E0DECF843638
:107EC00009F040C070D06FD0082F6DD080E0C81688
:107ED00080E7D80618F4F601B7BEE895C0E0D1E017
:107EE00062D089930C17E1F7F0E0CF16F0E7DF06D8
:107EF00018F0F601B7BEE89568D007B600FCFDCFD4
:107F0000A601A0E0B1E02C9130E011968C91119780
:107F100090E0982F8827822B932B1296FA010C0160
:107F200087BEE89511244E5F5F4FF1E0A038BF0790
:107F300051F7F601A7BEE89507B600FCFDCF97BE46
:107F4000E89526C08437B1F42ED02DD0F82E2BD052
:107F50003CD0F601EF2C8F010F5F1F4F84911BD097
:107F6000EA94F801C1F70894C11CD11CFA94CF0C13
:107F7000D11C0EC0853739F428D08EE10CD085E9AC
:107F80000AD08FE07ACF813511F488E018D01DD067
:107F900080E101D065CF982F8091C00085FFFCCF94
:107FA0009093C60008958091C00087FFFCCF809118
:107FB000C00084FD01C0A8958091C6000895E0E648
:107FC000F0E098E1908380830895EDDF803219F02E
:107FD00088E0F5DFFFCF84E1DECF1F93182FE3DFCA
:107FE0001150E9F7F2DF1F91089580E0E8DFEE27F6
:047FF000FF270994CA
:027FFE00040479
:0400000300007E007B
:00000001FF
